{
  "_format": "hh-sol-artifact-1",
  "contractName": "MFTMarketplace",
  "sourceName": "contracts/NFTMarketplace.sol",
  "abi": [
    {
      "inputs": [],
      "stateMutability": "nonpayable",
      "type": "constructor"
    },
    {
      "anonymous": false,
      "inputs": [
        {
          "indexed": true,
          "internalType": "address",
          "name": "owner",
          "type": "address"
        },
        {
          "indexed": true,
          "internalType": "address",
          "name": "approved",
          "type": "address"
        },
        {
          "indexed": true,
          "internalType": "uint256",
          "name": "tokenId",
          "type": "uint256"
        }
      ],
      "name": "Approval",
      "type": "event"
    },
    {
      "anonymous": false,
      "inputs": [
        {
          "indexed": true,
          "internalType": "address",
          "name": "owner",
          "type": "address"
        },
        {
          "indexed": true,
          "internalType": "address",
          "name": "operator",
          "type": "address"
        },
        {
          "indexed": false,
          "internalType": "bool",
          "name": "approved",
          "type": "bool"
        }
      ],
      "name": "ApprovalForAll",
      "type": "event"
    },
    {
      "anonymous": false,
      "inputs": [
        {
          "indexed": true,
          "internalType": "address",
          "name": "from",
          "type": "address"
        },
        {
          "indexed": true,
          "internalType": "address",
          "name": "to",
          "type": "address"
        },
        {
          "indexed": true,
          "internalType": "uint256",
          "name": "tokenId",
          "type": "uint256"
        }
      ],
      "name": "Transfer",
      "type": "event"
    },
    {
      "inputs": [
        {
          "internalType": "address",
          "name": "to",
          "type": "address"
        },
        {
          "internalType": "uint256",
          "name": "tokenId",
          "type": "uint256"
        }
      ],
      "name": "approve",
      "outputs": [],
      "stateMutability": "nonpayable",
      "type": "function"
    },
    {
      "inputs": [
        {
          "internalType": "address",
          "name": "owner",
          "type": "address"
        }
      ],
      "name": "balanceOf",
      "outputs": [
        {
          "internalType": "uint256",
          "name": "",
          "type": "uint256"
        }
      ],
      "stateMutability": "view",
      "type": "function"
    },
    {
      "inputs": [
        {
          "internalType": "string",
          "name": "tokenURI",
          "type": "string"
        },
        {
          "internalType": "uint256",
          "name": "price",
          "type": "uint256"
        }
      ],
      "name": "createToken",
      "outputs": [
        {
          "internalType": "uint256",
          "name": "",
          "type": "uint256"
        }
      ],
      "stateMutability": "payable",
      "type": "function"
    },
    {
      "inputs": [
        {
          "internalType": "uint256",
          "name": "tokenId",
          "type": "uint256"
        }
      ],
      "name": "executeSale",
      "outputs": [],
      "stateMutability": "payable",
      "type": "function"
    },
    {
      "inputs": [],
      "name": "getAllNFTs",
      "outputs": [
        {
          "components": [
            {
              "internalType": "uint256",
              "name": "tokenId",
              "type": "uint256"
            },
            {
              "internalType": "address payable",
              "name": "owner",
              "type": "address"
            },
            {
              "internalType": "address payable",
              "name": "seller",
              "type": "address"
            },
            {
              "internalType": "uint256",
              "name": "price",
              "type": "uint256"
            },
            {
              "internalType": "bool",
              "name": "currentlyListed",
              "type": "bool"
            }
          ],
          "internalType": "struct MFTMarketplace.ListedToken[]",
          "name": "",
          "type": "tuple[]"
        }
      ],
      "stateMutability": "view",
      "type": "function"
    },
    {
      "inputs": [
        {
          "internalType": "uint256",
          "name": "tokenId",
          "type": "uint256"
        }
      ],
      "name": "getApproved",
      "outputs": [
        {
          "internalType": "address",
          "name": "",
          "type": "address"
        }
      ],
      "stateMutability": "view",
      "type": "function"
    },
    {
      "inputs": [],
      "name": "getCurrentToken",
      "outputs": [
        {
          "internalType": "uint256",
          "name": "",
          "type": "uint256"
        }
      ],
      "stateMutability": "view",
      "type": "function"
    },
    {
      "inputs": [],
      "name": "getLatestIdToListedToken",
      "outputs": [
        {
          "components": [
            {
              "internalType": "uint256",
              "name": "tokenId",
              "type": "uint256"
            },
            {
              "internalType": "address payable",
              "name": "owner",
              "type": "address"
            },
            {
              "internalType": "address payable",
              "name": "seller",
              "type": "address"
            },
            {
              "internalType": "uint256",
              "name": "price",
              "type": "uint256"
            },
            {
              "internalType": "bool",
              "name": "currentlyListed",
              "type": "bool"
            }
          ],
          "internalType": "struct MFTMarketplace.ListedToken",
          "name": "",
          "type": "tuple"
        }
      ],
      "stateMutability": "view",
      "type": "function"
    },
    {
      "inputs": [],
      "name": "getListPrice",
      "outputs": [
        {
          "internalType": "uint256",
          "name": "",
          "type": "uint256"
        }
      ],
      "stateMutability": "view",
      "type": "function"
    },
    {
      "inputs": [
        {
          "internalType": "uint256",
          "name": "_tokenId",
          "type": "uint256"
        }
      ],
      "name": "getListedForToken",
      "outputs": [
        {
          "components": [
            {
              "internalType": "uint256",
              "name": "tokenId",
              "type": "uint256"
            },
            {
              "internalType": "address payable",
              "name": "owner",
              "type": "address"
            },
            {
              "internalType": "address payable",
              "name": "seller",
              "type": "address"
            },
            {
              "internalType": "uint256",
              "name": "price",
              "type": "uint256"
            },
            {
              "internalType": "bool",
              "name": "currentlyListed",
              "type": "bool"
            }
          ],
          "internalType": "struct MFTMarketplace.ListedToken",
          "name": "",
          "type": "tuple"
        }
      ],
      "stateMutability": "view",
      "type": "function"
    },
    {
      "inputs": [],
      "name": "getMyNFTs",
      "outputs": [
        {
          "components": [
            {
              "internalType": "uint256",
              "name": "tokenId",
              "type": "uint256"
            },
            {
              "internalType": "address payable",
              "name": "owner",
              "type": "address"
            },
            {
              "internalType": "address payable",
              "name": "seller",
              "type": "address"
            },
            {
              "internalType": "uint256",
              "name": "price",
              "type": "uint256"
            },
            {
              "internalType": "bool",
              "name": "currentlyListed",
              "type": "bool"
            }
          ],
          "internalType": "struct MFTMarketplace.ListedToken[]",
          "name": "",
          "type": "tuple[]"
        }
      ],
      "stateMutability": "view",
      "type": "function"
    },
    {
      "inputs": [
        {
          "internalType": "address",
          "name": "owner",
          "type": "address"
        },
        {
          "internalType": "address",
          "name": "operator",
          "type": "address"
        }
      ],
      "name": "isApprovedForAll",
      "outputs": [
        {
          "internalType": "bool",
          "name": "",
          "type": "bool"
        }
      ],
      "stateMutability": "view",
      "type": "function"
    },
    {
      "inputs": [],
      "name": "name",
      "outputs": [
        {
          "internalType": "string",
          "name": "",
          "type": "string"
        }
      ],
      "stateMutability": "view",
      "type": "function"
    },
    {
      "inputs": [
        {
          "internalType": "uint256",
          "name": "tokenId",
          "type": "uint256"
        }
      ],
      "name": "ownerOf",
      "outputs": [
        {
          "internalType": "address",
          "name": "",
          "type": "address"
        }
      ],
      "stateMutability": "view",
      "type": "function"
    },
    {
      "inputs": [
        {
          "internalType": "address",
          "name": "from",
          "type": "address"
        },
        {
          "internalType": "address",
          "name": "to",
          "type": "address"
        },
        {
          "internalType": "uint256",
          "name": "tokenId",
          "type": "uint256"
        }
      ],
      "name": "safeTransferFrom",
      "outputs": [],
      "stateMutability": "nonpayable",
      "type": "function"
    },
    {
      "inputs": [
        {
          "internalType": "address",
          "name": "from",
          "type": "address"
        },
        {
          "internalType": "address",
          "name": "to",
          "type": "address"
        },
        {
          "internalType": "uint256",
          "name": "tokenId",
          "type": "uint256"
        },
        {
          "internalType": "bytes",
          "name": "data",
          "type": "bytes"
        }
      ],
      "name": "safeTransferFrom",
      "outputs": [],
      "stateMutability": "nonpayable",
      "type": "function"
    },
    {
      "inputs": [
        {
          "internalType": "address",
          "name": "operator",
          "type": "address"
        },
        {
          "internalType": "bool",
          "name": "approved",
          "type": "bool"
        }
      ],
      "name": "setApprovalForAll",
      "outputs": [],
      "stateMutability": "nonpayable",
      "type": "function"
    },
    {
      "inputs": [
        {
          "internalType": "bytes4",
          "name": "interfaceId",
          "type": "bytes4"
        }
      ],
      "name": "supportsInterface",
      "outputs": [
        {
          "internalType": "bool",
          "name": "",
          "type": "bool"
        }
      ],
      "stateMutability": "view",
      "type": "function"
    },
    {
      "inputs": [],
      "name": "symbol",
      "outputs": [
        {
          "internalType": "string",
          "name": "",
          "type": "string"
        }
      ],
      "stateMutability": "view",
      "type": "function"
    },
    {
      "inputs": [
        {
          "internalType": "uint256",
          "name": "tokenId",
          "type": "uint256"
        }
      ],
      "name": "tokenURI",
      "outputs": [
        {
          "internalType": "string",
          "name": "",
          "type": "string"
        }
      ],
      "stateMutability": "view",
      "type": "function"
    },
    {
      "inputs": [
        {
          "internalType": "address",
          "name": "from",
          "type": "address"
        },
        {
          "internalType": "address",
          "name": "to",
          "type": "address"
        },
        {
          "internalType": "uint256",
          "name": "tokenId",
          "type": "uint256"
        }
      ],
      "name": "transferFrom",
      "outputs": [],
      "stateMutability": "nonpayable",
      "type": "function"
    },
    {
      "inputs": [
        {
          "internalType": "uint256",
          "name": "_listPrice",
          "type": "uint256"
        }
      ],
      "name": "updateListPrice",
      "outputs": [],
      "stateMutability": "payable",
      "type": "function"
    }
  ],
  "bytecode": "0x6080604052662386f26fc10000600a553480156200001c57600080fd5b50604080518082018252600e81526d4d46544d61726b6574706c61636560901b6020808301918252835180850190945260048452634e46544d60e01b9084015281519192916200006f91600091620000a0565b50805162000085906001906020840190620000a0565b5050600780546001600160a01b031916331790555062000183565b828054620000ae9062000146565b90600052602060002090601f016020900481019282620000d257600085556200011d565b82601f10620000ed57805160ff19168380011785556200011d565b828001600101855582156200011d579182015b828111156200011d57825182559160200191906001019062000100565b506200012b9291506200012f565b5090565b5b808211156200012b576000815560010162000130565b600181811c908216806200015b57607f821691505b602082108114156200017d57634e487b7160e01b600052602260045260246000fd5b50919050565b61212180620001936000396000f3fe6080604052600436106101355760003560e01c806372b3b620116100ab578063c322579c1161006f578063c322579c14610354578063c87b56dd14610367578063d1a88ae514610387578063e0391b091461039c578063e985e9c5146103b1578063ef2d1746146103fa57600080fd5b806372b3b620146102d957806395d89b41146102ec5780639b1225c414610301578063a22cb46514610314578063b88d4fde1461033457600080fd5b8063277f8145116100fd578063277f81451461020b57806342842e0e14610238578063629cb2e4146102585780636352211e1461027a57806368f1945f1461029a57806370a08231146102b957600080fd5b806301ffc9a71461013a57806306fdde031461016f578063081812fc14610191578063095ea7b3146101c957806323b872dd146101eb575b600080fd5b34801561014657600080fd5b5061015a610155366004611d27565b61040f565b60405190151581526020015b60405180910390f35b34801561017b57600080fd5b50610184610461565b6040516101669190611ef3565b34801561019d57600080fd5b506101b16101ac366004611db5565b6104f3565b6040516001600160a01b039091168152602001610166565b3480156101d557600080fd5b506101e96101e4366004611cfe565b61051a565b005b3480156101f757600080fd5b506101e9610206366004611c10565b610635565b34801561021757600080fd5b5061022b610226366004611db5565b610666565b6040516101669190611fea565b34801561024457600080fd5b506101e9610253366004611c10565b6106d0565b34801561026457600080fd5b5061026d6106eb565b6040516101669190611ea5565b34801561028657600080fd5b506101b1610295366004611db5565b610930565b3480156102a657600080fd5b50600a545b604051908152602001610166565b3480156102c557600080fd5b506102ab6102d4366004611bc4565b610990565b6102ab6102e7366004611d5f565b610a16565b3480156102f857600080fd5b50610184610b15565b6101e961030f366004611db5565b610b24565b34801561032057600080fd5b506101e961032f366004611cc4565b610c74565b34801561034057600080fd5b506101e961034f366004611c4b565b610c83565b6101e9610362366004611db5565b610cb5565b34801561037357600080fd5b50610184610382366004611db5565b610d23565b34801561039357600080fd5b5061022b610e34565b3480156103a857600080fd5b5061026d610eab565b3480156103bd57600080fd5b5061015a6103cc366004611bde565b6001600160a01b03918216600090815260056020908152604080832093909416825291909152205460ff1690565b34801561040657600080fd5b506102ab610ff2565b60006001600160e01b031982166380ac58cd60e01b148061044057506001600160e01b03198216635b5e139f60e01b145b8061045b57506301ffc9a760e01b6001600160e01b03198316145b92915050565b60606000805461047090612053565b80601f016020809104026020016040519081016040528092919081815260200182805461049c90612053565b80156104e95780601f106104be576101008083540402835291602001916104e9565b820191906000526020600020905b8154815290600101906020018083116104cc57829003601f168201915b5050505050905090565b60006104fe82611002565b506000908152600460205260409020546001600160a01b031690565b600061052582610930565b9050806001600160a01b0316836001600160a01b031614156105985760405162461bcd60e51b815260206004820152602160248201527f4552433732313a20617070726f76616c20746f2063757272656e74206f776e656044820152603960f91b60648201526084015b60405180910390fd5b336001600160a01b03821614806105b457506105b481336103cc565b6106265760405162461bcd60e51b815260206004820152603d60248201527f4552433732313a20617070726f76652063616c6c6572206973206e6f7420746f60448201527f6b656e206f776e6572206f7220617070726f76656420666f7220616c6c000000606482015260840161058f565b6106308383611064565b505050565b61063f33826110d2565b61065b5760405162461bcd60e51b815260040161058f90611f06565b610630838383611150565b61066e611a6b565b506000908152600b6020908152604091829020825160a0810184528154815260018201546001600160a01b03908116938201939093526002820154909216928201929092526003820154606082015260049091015460ff161515608082015290565b61063083838360405180602001604052806000815250610c83565b606060006106f860085490565b905060008060005b838110156107905733600b6000610718846001611ff8565b81526020810191909152604001600020600101546001600160a01b0316148061076b575033600b600061074c846001611ff8565b81526020810191909152604001600020600201546001600160a01b0316145b1561077e5761077b600184611ff8565b92505b806107888161208e565b915050610700565b5060008267ffffffffffffffff8111156107ba57634e487b7160e01b600052604160045260246000fd5b6040519080825280602002602001820160405280156107f357816020015b6107e0611a6b565b8152602001906001900390816107d85790505b50905060005b848110156109275733600b6000610811846001611ff8565b81526020810191909152604001600020600101546001600160a01b03161480610864575033600b6000610845846001611ff8565b81526020810191909152604001600020600201546001600160a01b0316145b15610915576000610876826001611ff8565b6000818152600b6020908152604091829020825160a0810184528154815260018201546001600160a01b039081169382019390935260028201549092169282019290925260038201546060820152600482015460ff1615156080820152855192935090918590879081106108fa57634e487b7160e01b600052603260045260246000fd5b6020908102919091010152610910600186611ff8565b945050505b8061091f8161208e565b9150506107f9565b50949350505050565b6000818152600260205260408120546001600160a01b03168061045b5760405162461bcd60e51b8152602060048201526018602482015277115490cdcc8c4e881a5b9d985b1a59081d1bdad95b88125160421b604482015260640161058f565b60006001600160a01b0382166109fa5760405162461bcd60e51b815260206004820152602960248201527f4552433732313a2061646472657373207a65726f206973206e6f7420612076616044820152683634b21037bbb732b960b91b606482015260840161058f565b506001600160a01b031660009081526003602052604090205490565b6000600a543414610a795760405162461bcd60e51b815260206004820152602760248201527f53656e6420656e6f75676820657468657220746f20746865206c697374696e67604482015266081bd98813919560ca1b606482015260840161058f565b60008211610ad55760405162461bcd60e51b8152602060048201526024808201527f4d616b65207375726520796f752073656e642074686520636f727265637420706044820152637269636560e01b606482015260840161058f565b610ae3600880546001019055565b6000610aee60085490565b9050610afa33826112c1565b610b0481856112db565b610b0e8184611375565b9392505050565b60606001805461047090612053565b6000818152600b6020526040902060030154348114610b9d5760405162461bcd60e51b815260206004820152602f60248201527f506c65617365207375626d697420746865207072696365206f6620746861742060448201526e03830b93a34b1bab630b91027232a1608d1b606482015260840161058f565b6000828152600b602052604090206002810180546004909201805460ff191660011790556001600160a01b03198216331790556001600160a01b0316610be7600980546001019055565b610bf2303385611150565b610bfc308461051a565b600754600a546040516001600160a01b039092169181156108fc0291906000818181858888f19350505050158015610c38573d6000803e3d6000fd5b506040516001600160a01b038216903480156108fc02916000818181858888f19350505050158015610c6e573d6000803e3d6000fd5b50505050565b610c7f338383611412565b5050565b610c8d33836110d2565b610ca95760405162461bcd60e51b815260040161058f90611f06565b610c6e848484846114e1565b6007546001600160a01b03163314610d1e5760405162461bcd60e51b815260206004820152602660248201527f4f6e6c79206f776e65722063616e206368616e676520746865206c697374656460448201526520707269636560d01b606482015260840161058f565b600a55565b6060610d2e82611002565b60008281526006602052604081208054610d4790612053565b80601f0160208091040260200160405190810160405280929190818152602001828054610d7390612053565b8015610dc05780601f10610d9557610100808354040283529160200191610dc0565b820191906000526020600020905b815481529060010190602001808311610da357829003601f168201915b505050505090506000610dde60408051602081019091526000815290565b9050805160001415610df1575092915050565b815115610e23578082604051602001610e0b929190611e39565b60405160208183030381529060405292505050919050565b610e2c84611514565b949350505050565b610e3c611a6b565b6000610e4760085490565b6000908152600b6020908152604091829020825160a0810184528154815260018201546001600160a01b03908116938201939093526002820154909216928201929092526003820154606082015260049091015460ff161515608082015292915050565b60606000610eb860085490565b905060008167ffffffffffffffff811115610ee357634e487b7160e01b600052604160045260246000fd5b604051908082528060200260200182016040528015610f1c57816020015b610f09611a6b565b815260200190600190039081610f015790505b5090506000805b83811015610fe9576000610f38826001611ff8565b6000818152600b6020908152604091829020825160a0810184528154815260018201546001600160a01b039081169382019390935260028201549092169282019290925260038201546060820152600482015460ff161515608082015286519293509091869086908110610fbc57634e487b7160e01b600052603260045260246000fd5b6020908102919091010152610fd2600185611ff8565b935050508080610fe19061208e565b915050610f23565b50909392505050565b6000610ffd60085490565b905090565b6000818152600260205260409020546001600160a01b03166110615760405162461bcd60e51b8152602060048201526018602482015277115490cdcc8c4e881a5b9d985b1a59081d1bdad95b88125160421b604482015260640161058f565b50565b600081815260046020526040902080546001600160a01b0319166001600160a01b038416908117909155819061109982610930565b6001600160a01b03167f8c5be1e5ebec7d5bd14f71427d1e84f3dd0314c0f7b2291e5b200ac8c7c3b92560405160405180910390a45050565b6000806110de83610930565b9050806001600160a01b0316846001600160a01b0316148061112557506001600160a01b0380821660009081526005602090815260408083209388168352929052205460ff165b80610e2c5750836001600160a01b031661113e846104f3565b6001600160a01b031614949350505050565b826001600160a01b031661116382610930565b6001600160a01b0316146111895760405162461bcd60e51b815260040161058f90611fa5565b6001600160a01b0382166111eb5760405162461bcd60e51b8152602060048201526024808201527f4552433732313a207472616e7366657220746f20746865207a65726f206164646044820152637265737360e01b606482015260840161058f565b6111f88383836001611587565b826001600160a01b031661120b82610930565b6001600160a01b0316146112315760405162461bcd60e51b815260040161058f90611fa5565b600081815260046020908152604080832080546001600160a01b03199081169091556001600160a01b0387811680865260038552838620805460001901905590871680865283862080546001019055868652600290945282852080549092168417909155905184937fddf252ad1be2c89b69c2b068fc378daa952ba7f163c4a11628f55a4df523b3ef91a4505050565b610c7f82826040518060200160405280600081525061160f565b6000828152600260205260409020546001600160a01b03166113565760405162461bcd60e51b815260206004820152602e60248201527f45524337323155524953746f726167653a2055524920736574206f66206e6f6e60448201526d32bc34b9ba32b73a103a37b5b2b760911b606482015260840161058f565b6000828152600660209081526040909120825161063092840190611a99565b6040805160a081018252838152306020808301828152338486018181526060860188815260016080880181815260008c8152600b9097529890952096518755925193860180546001600160a01b039586166001600160a01b03199182161790915590516002870180549190951691161790925551600384015592516004909201805492151560ff1990931692909217909155610c7f919084611150565b816001600160a01b0316836001600160a01b031614156114745760405162461bcd60e51b815260206004820152601960248201527f4552433732313a20617070726f766520746f2063616c6c657200000000000000604482015260640161058f565b6001600160a01b03838116600081815260056020908152604080832094871680845294825291829020805460ff191686151590811790915591519182527f17307eab39ab6107e8899845ad3d59bd9653f200f220920489ca2b5937696c31910160405180910390a3505050565b6114ec848484611150565b6114f884848484611642565b610c6e5760405162461bcd60e51b815260040161058f90611f53565b606061151f82611002565b600061153660408051602081019091526000815290565b905060008151116115565760405180602001604052806000815250610b0e565b806115608461174f565b604051602001611571929190611e39565b6040516020818303038152906040529392505050565b6001811115610c6e576001600160a01b038416156115cd576001600160a01b038416600090815260036020526040812080548392906115c7908490612010565b90915550505b6001600160a01b03831615610c6e576001600160a01b03831660009081526003602052604081208054839290611604908490611ff8565b909155505050505050565b61161983836117fa565b6116266000848484611642565b6106305760405162461bcd60e51b815260040161058f90611f53565b60006001600160a01b0384163b1561174457604051630a85bd0160e11b81526001600160a01b0385169063150b7a0290611686903390899088908890600401611e68565b602060405180830381600087803b1580156116a057600080fd5b505af19250505080156116d0575060408051601f3d908101601f191682019092526116cd91810190611d43565b60015b61172a573d8080156116fe576040519150601f19603f3d011682016040523d82523d6000602084013e611703565b606091505b5080516117225760405162461bcd60e51b815260040161058f90611f53565b805181602001fd5b6001600160e01b031916630a85bd0160e11b149050610e2c565b506001949350505050565b6060600061175c83611993565b600101905060008167ffffffffffffffff81111561178a57634e487b7160e01b600052604160045260246000fd5b6040519080825280601f01601f1916602001820160405280156117b4576020820181803683370190505b5090508181016020015b600019016f181899199a1a9b1b9c1cb0b131b232b360811b600a86061a8153600a85049450846117ed576117f2565b6117be565b509392505050565b6001600160a01b0382166118505760405162461bcd60e51b815260206004820181905260248201527f4552433732313a206d696e7420746f20746865207a65726f2061646472657373604482015260640161058f565b6000818152600260205260409020546001600160a01b0316156118b55760405162461bcd60e51b815260206004820152601c60248201527f4552433732313a20746f6b656e20616c7265616479206d696e74656400000000604482015260640161058f565b6118c3600083836001611587565b6000818152600260205260409020546001600160a01b0316156119285760405162461bcd60e51b815260206004820152601c60248201527f4552433732313a20746f6b656e20616c7265616479206d696e74656400000000604482015260640161058f565b6001600160a01b038216600081815260036020908152604080832080546001019055848352600290915280822080546001600160a01b0319168417905551839291907fddf252ad1be2c89b69c2b068fc378daa952ba7f163c4a11628f55a4df523b3ef908290a45050565b60008072184f03e93ff9f4daa797ed6e38ed64bf6a1f0160401b83106119d25772184f03e93ff9f4daa797ed6e38ed64bf6a1f0160401b830492506040015b6d04ee2d6d415b85acef810000000083106119fe576d04ee2d6d415b85acef8100000000830492506020015b662386f26fc100008310611a1c57662386f26fc10000830492506010015b6305f5e1008310611a34576305f5e100830492506008015b6127108310611a4857612710830492506004015b60648310611a5a576064830492506002015b600a831061045b5760010192915050565b6040805160a08101825260008082526020820181905291810182905260608101829052608081019190915290565b828054611aa590612053565b90600052602060002090601f016020900481019282611ac75760008555611b0d565b82601f10611ae057805160ff1916838001178555611b0d565b82800160010185558215611b0d579182015b82811115611b0d578251825591602001919060010190611af2565b50611b19929150611b1d565b5090565b5b80821115611b195760008155600101611b1e565b600067ffffffffffffffff80841115611b4d57611b4d6120bf565b604051601f8501601f19908116603f01168101908282118183101715611b7557611b756120bf565b81604052809350858152868686011115611b8e57600080fd5b858560208301376000602087830101525050509392505050565b80356001600160a01b0381168114611bbf57600080fd5b919050565b600060208284031215611bd5578081fd5b610b0e82611ba8565b60008060408385031215611bf0578081fd5b611bf983611ba8565b9150611c0760208401611ba8565b90509250929050565b600080600060608486031215611c24578081fd5b611c2d84611ba8565b9250611c3b60208501611ba8565b9150604084013590509250925092565b60008060008060808587031215611c60578081fd5b611c6985611ba8565b9350611c7760208601611ba8565b925060408501359150606085013567ffffffffffffffff811115611c99578182fd5b8501601f81018713611ca9578182fd5b611cb887823560208401611b32565b91505092959194509250565b60008060408385031215611cd6578182fd5b611cdf83611ba8565b915060208301358015158114611cf3578182fd5b809150509250929050565b60008060408385031215611d10578182fd5b611d1983611ba8565b946020939093013593505050565b600060208284031215611d38578081fd5b8135610b0e816120d5565b600060208284031215611d54578081fd5b8151610b0e816120d5565b60008060408385031215611d71578182fd5b823567ffffffffffffffff811115611d87578283fd5b8301601f81018513611d97578283fd5b611da685823560208401611b32565b95602094909401359450505050565b600060208284031215611dc6578081fd5b5035919050565b60008151808452611de5816020860160208601612027565b601f01601f19169290920160200192915050565b805182526020808201516001600160a01b039081169184019190915260408083015190911690830152606080820151908301526080908101511515910152565b60008351611e4b818460208801612027565b835190830190611e5f818360208801612027565b01949350505050565b6001600160a01b0385811682528416602082015260408101839052608060608201819052600090611e9b90830184611dcd565b9695505050505050565b6020808252825182820181905260009190848201906040850190845b81811015611ee757611ed4838551611df9565b9284019260a09290920191600101611ec1565b50909695505050505050565b602081526000610b0e6020830184611dcd565b6020808252602d908201527f4552433732313a2063616c6c6572206973206e6f7420746f6b656e206f776e6560408201526c1c881bdc88185c1c1c9bdd9959609a1b606082015260800190565b60208082526032908201527f4552433732313a207472616e7366657220746f206e6f6e20455243373231526560408201527131b2b4bb32b91034b6b83632b6b2b73a32b960711b606082015260800190565b60208082526025908201527f4552433732313a207472616e736665722066726f6d20696e636f72726563742060408201526437bbb732b960d91b606082015260800190565b60a0810161045b8284611df9565b6000821982111561200b5761200b6120a9565b500190565b600082821015612022576120226120a9565b500390565b60005b8381101561204257818101518382015260200161202a565b83811115610c6e5750506000910152565b600181811c9082168061206757607f821691505b6020821081141561208857634e487b7160e01b600052602260045260246000fd5b50919050565b60006000198214156120a2576120a26120a9565b5060010190565b634e487b7160e01b600052601160045260246000fd5b634e487b7160e01b600052604160045260246000fd5b6001600160e01b03198116811461106157600080fdfea2646970667358221220e10eed9f6567ea483c2e8085b43ed3deac173e470e4642dee9a31fce6a87113b64736f6c63430008040033",
  "linkReferences": {},
  "deployedLinkReferences": {}
}